:020000040000fa
:04005c001603000087
:020000040000fa
:0400100016030000d3
:020000040000fa
:04025c001603000085
:020000040000fa
:0402100016030000d1
:020000040000fa
:04027400160300006d
:020000040000fa
:0403340016030000ac
:020000040000fa
:04035c001603000084
:020000040000fa
:040270001603000071
:020000040000fa
:04022c0016030000b5
:020000040000fa
:04023c0016030000a5
:020000040000fa
:0402bc001603000025
:020000040000fa
:0402c0001603000021
:020000040000fa
:0402c400160300001d
:020000040000fa
:0402c8001603000019
:020000040000fa
:040280001603000061
:020000040000fa
:04028400160300005d
:020000040000fa
:04039c001603000044
:020000040000fa
:0402280016030000b9
:020000040000fa
:040278001603000069
:020000040000fa
:04029c001603000045
:020000040000fa
:0402fc0016030000e5
:020000040000fa
:0403000016030000e0
:020000040000fa
:040260001603000081
:020000040000fa
:04026400160300007d
:020000040000fa
:04027c001603000065
:020000040000fa
:040288001603000059
:020000040000fa
:0402b0001603000031
:020000040000fa
:0402b400160300002d
:020000040000fa
:0402b8001603000029
:020000040000fa
:0402380016030000a9
:020000040000fa
:0402e0001603000001
:020000040000fa
:0402e40016030000fd
:020000040000fa
:0402e80016030000f9
:020000040000fa
:0402f40016030000ed
:020000040000fa
:0402f80016030000e9
:020000040000fa
:0403040016030000dc
:020000040000fa
:0403080016030000d8
:020000040000fa
:04030c0016030000d4
:020000040000fa
:0403100016030000d0
:020000040000fa
:0403140016030000cc
:020000040000fa
:0403180016030000c8
:020000040000fa
:04031c0016030000c4
:020000040000fa
:0403240016030000bc
:020000040000fa
:0403280016030000b8
:020000040000fa
:0403380016030000a8
:020000040000fa
:04033c0016030000a4
:020000040000fa
:0403400016030000a0
:020000040000fa
:04034400160300009c
:020000040000fa
:04034c001603000094
:020000040000fa
:040350001603000090
:020000040000fa
:04035400160300008c
:020000040000fa
:040358001603000088
:020000040000fa
:040360001603000080
:020000040000fa
:04036400160300007c
:020000040000fa
:040368001603000078
:020000040000fa
:040348001603000098
:020000040000fa
:04026c001603000075
:020000040000fa
:0402f00016030000f1
:020000040000fa
:04037c001603000064
:020000040000fa
:0402180016030000c9
:020000040000fa
:0402300016030000b1
:020000040000fa
:0402400016030000a1
:020000040000fa
:04028c001603000055
:020000040000fa
:040290001603000051
:020000040000fa
:0402cc001603000015
:020000040000fa
:0402d0001603000011
:020000040000fa
:0402d400160300000d
:020000040000fa
:0402d8001603000009
:020000040000fa
:040398001603000048
:020000040000fa
:04020c0016030000d5
:020000040000fa
:0402dc001603000005
:020000040000fa
:0403200016030000c0
:020000040000fa
:0402080016030000d9
:020000040000fa
:04021c0016030000c5
:020000040000fa
:0402200016030000c1
:020000040000fa
:0402240016030000bd
:020000040000fa
:040268001603000079
:020000040000fa
:0402ec0016030000f5
:020000040000fa
:040378001603000068
:020000040000fa
:04024c001603000095
:020000040000fa
:040250001603000091
:020000040000fa
:0402a8001603000039
:020000040000fa
:0402ac001603000035
:020000040000fa
:040390001603000050
:020000040000fa
:04039400160300004c
:020000040000fa
:0402140016030000cd
:020000040000fa
:0402340016030000ad
:020000040000fa
:04024400160300009d
:020000040000fa
:040248001603000099
:020000040000fa
:04029400160300004d
:020000040000fa
:040298001603000049
:020000040000fa
:04032c0016030000b4
:020000040000fa
:04025400160300008d
:020000040000fa
:040258001603000089
:020000040000fa
:0403300016030000b0
:020000040000fa
:0402a0001603000041
:020000040000fa
:0402a400160300003d
:020000040000fa
:04036c001603000074
:020000040000fa
:040370001603000070
:020000040000fa
:04037400160300006c
:020000040000fa
:04038400160300005c
:020000040000fa
:040388001603000058
:020000040000fa
:04038c001603000054
:020000040000fa
:040380001603000060
:020000040000fa
:04007400160300006f
:020000040000fa
:0401340016030000ae
:020000040000fa
:04015c001603000086
:020000040000fa
:040070001603000073
:020000040000fa
:04002c0016030000b7
:020000040000fa
:04003c0016030000a7
:020000040000fa
:0400bc001603000027
:020000040000fa
:0400c0001603000023
:020000040000fa
:0400c400160300001f
:020000040000fa
:0400c800160300001b
:020000040000fa
:040080001603000063
:020000040000fa
:04008400160300005f
:020000040000fa
:04019c001603000046
:020000040000fa
:0400280016030000bb
:020000040000fa
:04007800160300006b
:020000040000fa
:04009c001603000047
:020000040000fa
:0400fc0016030000e7
:020000040000fa
:0401000016030000e2
:020000040000fa
:040060001603000083
:020000040000fa
:04006400160300007f
:020000040000fa
:04007c001603000067
:020000040000fa
:04008800160300005b
:020000040000fa
:0400b0001603000033
:020000040000fa
:0400b400160300002f
:020000040000fa
:0400b800160300002b
:020000040000fa
:0400380016030000ab
:020000040000fa
:0400e0001603000003
:020000040000fa
:0400e40016030000ff
:020000040000fa
:0400e80016030000fb
:020000040000fa
:0400f40016030000ef
:020000040000fa
:0400f80016030000eb
:020000040000fa
:0401040016030000de
:020000040000fa
:0401080016030000da
:020000040000fa
:04010c0016030000d6
:020000040000fa
:0401100016030000d2
:020000040000fa
:0401140016030000ce
:020000040000fa
:0401180016030000ca
:020000040000fa
:04011c0016030000c6
:020000040000fa
:0401240016030000be
:020000040000fa
:0401280016030000ba
:020000040000fa
:0401380016030000aa
:020000040000fa
:04013c0016030000a6
:020000040000fa
:0401400016030000a2
:020000040000fa
:04014400160300009e
:020000040000fa
:04014c001603000096
:020000040000fa
:040150001603000092
:020000040000fa
:04015400160300008e
:020000040000fa
:04015800160300008a
:020000040000fa
:040160001603000082
:020000040000fa
:04016400160300007e
:020000040000fa
:04016800160300007a
:020000040000fa
:04014800160300009a
:020000040000fa
:04006c001603000077
:020000040000fa
:0400f00016030000f3
:020000040000fa
:04017c001603000066
:020000040000fa
:0400180016030000cb
:020000040000fa
:0400300016030000b3
:020000040000fa
:0400400016030000a3
:020000040000fa
:04008c001603000057
:020000040000fa
:040090001603000053
:020000040000fa
:0400cc001603000017
:020000040000fa
:0400d0001603000013
:020000040000fa
:0400d400160300000f
:020000040000fa
:0400d800160300000b
:020000040000fa
:04019800160300004a
:020000040000fa
:04000c0016030000d7
:020000040000fa
:0400dc001603000007
:020000040000fa
:0401200016030000c2
:020000040000fa
:0400080016030000db
:020000040000fa
:04001c0016030000c7
:020000040000fa
:0400200016030000c3
:020000040000fa
:0400240016030000bf
:020000040000fa
:04006800160300007b
:020000040000fa
:0400ec0016030000f7
:020000040000fa
:04017800160300006a
:020000040000fa
:04004c001603000097
:020000040000fa
:040050001603000093
:020000040000fa
:0400a800160300003b
:020000040000fa
:0400ac001603000037
:020000040000fa
:040190001603000052
:020000040000fa
:04019400160300004e
:020000040000fa
:0400140016030000cf
:020000040000fa
:04004400160300009f
:020000040000fa
:04004800160300009b
:020000040000fa
:04009400160300004f
:020000040000fa
:04009800160300004b
:020000040000fa
:04012c0016030000b6
:020000040000fa
:04005400160300008f
:020000040000fa
:04005800160300008b
:020000040000fa
:0401300016030000b2
:020000040000fa
:0400a0001603000043
:020000040000fa
:0400a400160300003f
:020000040000fa
:04016c001603000076
:020000040000fa
:040170001603000072
:020000040000fa
:04017400160300006e
:020000040000fa
:04018400160300005e
:020000040000fa
:04018800160300005a
:020000040000fa
:04018c001603000056
:020000040000fa
:040180001603000062
:020000040000fa
:080000000002040000000000f2
:020000040000fa
:100400006f8a20000e7f24000e018800000000008b
:10041000000020000000e000020032000001200087
:1004200020028800140007000b0407000000e00011
:1004300003003a0060bb20000100200002003700ea
:100440000000200001002000810f70000100320038
:1004500014000700000020000000e000020032004d
:100460000000020000000000dc0c020000000000a0
:100470000040da000000fe004440a90040012000d6
:100480000000e0000300320000002000a00188000e
:100490004440a800000006008a1f78008b1f7800e7
:1004a0000000060091018800800478000000eb0045
:1004b0001a003700e284440032a0b4009905ba0063
:1004c000e284440032a0b4009906ba00e2844400f9
:1004d00032a0b4000006eb00476fde00fd07b2005b
:1004e000636ce10003003a00ebff07000000eb0043
:1004f0000a003700606ce10004003a00005deb0088
:100500008b05e900fdff3e00040037006168e10053
:10051000010032000086eb000b00070019c7ba008b
:100520001905ba000e04e00003003a000a00e000da
:10053000e0ff3a0000000600fe07b2009e018800be
:100540008a047800f5ff3700395dba008b05e900b1
:100550000c003200295dba008b05e900080032006a
:100560000c00e00003003a00e284440032a0b40032
:10057000f5ff370019ddba008b05e900faff3a00f4
:100580008904e800e184440032a0b40000000600c1
:10059000809fbe000000fa0000408000f00f500075
:1005a0000f003a00cbe2a90020408000101788001d
:1005b000da82a800da82a800da82a9000028ef0017
:1005c000104080000000a200104088002140800000
:1005d0000004200000806800204088000f003700e1
:1005e000cbe2a8001140800000408000c408dd007c
:1005f00000804000e1872000614078000080fb001f
:1006000010178800da82a800da82a800da82a9002e
:10061000004080000000e800004088008460a900dd
:100620000080fa004f00be00004006000040da00e3
:100630000000fe000a00fa00e20f500034003e0005
:1006400020458000e10f500003003200e20f50000f
:1006500011003a000c003700032220000300e000e4
:1006600001003a000040da002002e20002003500fa
:100670002822ef0021e2a8002342ab000d003a003f
:100680002342a8000b003700032320000300e000f2
:1006900001003a000040da003002e20002003500ba
:1006a0003822ef0031e2a8003342ab0001003a00eb
:1006b0003342a800820178000b0037003102fb00b2
:1006c000e10f500004003a002322ab00feff3a0085
:1006d00024118800030037003322ab00feff3a00ec
:1006e000a41188008301e9000300e000f3ff3a0051
:1006f000e10f500003003a002302ab00feff32007e
:100700000b0037003302ab00feff32000800370059
:1007100033002000b3bf9f00c0bf9f00d1bf9f0028
:10072000e2bf9f006a8057004c0307006fb9970033
:10073000020078000080fa00000006000c00fa00b9
:10074000889fbe0000047800f0ff2700d0bf9f0004
:100750008004eb0099bf9f0088bf9f00a8bf9f0047
:10076000200c2000b0bf9f0078815700cfb09700c9
:1007700070805700100007000fb8970009487800f4
:100780008fb89700088050004f04be000080fa0028
:1007900000000600d0019000028151004240a900f3
:1007a0000300340010017800014978000208e800d5
:1007b0000100780000000600f6874700889fbe0011
:1007c0008a9fbe008c9fbe008e1f780000057800b7
:1007d000a1b79f00020778008004eb009002370069
:1007e000afb097008100e800a1b79f0051c2b300ed
:1007f000814f500003003a00afb097000004eb00b7
:1008000011003700ba0090000000fb000168a3004f
:100810000700320009017800800078000a007800a3
:10082000dcff07000000e00005003a007c02370012
:100830008a00780086020700e10f4000780232004b
:100840008904e80076023700010078003141780021
:10085000d3c2b300834f51000c00320007003c00ac
:10086000edc15100834f51000a003200ebc141003d
:10087000834f51000d003a000800370003c3b30056
:10088000834f510009003a00060037000830a000ed
:10089000edff37000800a000ebff37000810a000b4
:1008a000e9ff37000820a000e7ff37000818a30081
:1008b000010032000800a1000838a3000100320046
:1008c0000820a1008200fb000103b100e98f500065
:1008d0000c003e00000178008000eb006a08b900bf
:1008e000b201fb000303b1008080410002007800e8
:1008f0009201fb000303b100e98f5100f7ff3600be
:10090000060037008000eb00a3c2b300834f510004
:1009100002003a00ce0078000000e8008005eb00fd
:10092000e2c2b300904f110009003a0008e0a000b5
:1009300064415100d04f11000300320000017800e3
:100940000102780006003700ce0578000000e800bc
:1009500000017800090037006a58b900808541001d
:1009600002007800b201fb000303b100e98f5100df
:10097000f9ff360084007800f5ff37003240780038
:10098000a2b79f00c3c6b300834f500025003200ba
:100990000f003c0032c6b300824f50008800320086
:1009a00004003c000004e000220232006b415100d0
:1009b0000f00370042c6b300824f500017003200cc
:1009c00065414100824f500094003a001300370007
:1009d00032c7b300824f50001b00320007003c00ba
:1009e00064415100824f5000100032000241e80083
:1009f000824f500089003a000f00370052c7b30001
:100a0000824f50008a00320063414100824f500003
:100a100082003a00e0df9f0009003700e0df9f001e
:100a2000850037000840a000d4ff3700e0df9f00ba
:100a30000860a00080003700e0df9f000850a000a1
:100a40000870a0007c003700e0df9f004e007800b7
:100a5000000678000000e00001003a008c822000cf
:100a60000c0178000000eb00010037000000e800f6
:100a7000e24178000304e000fcff3a0080067800c1
:100a80000b00e000030032008d8f550001003100a3
:100a90008b0678008005eb008d8f5000010036003a
:100aa0008d855000680464002a003a001100370068
:100ab0003a0090000068a3000700320009017800a6
:100ac000010220000a00780032ff07000000e00069
:100ad00006003a00060037008a0078000002200075
:100ae000db010700e10f4000010032008904e8004b
:100af0008b05e9000b00e000edff3a008085eb007c
:100b0000140037003a0090000068a300090032008a
:100b10000c007800b000fb000006780009017800a6
:100b20000a0078001bff07000000e00008003a0000
:100b3000080037008c0078003100fb0001067800c7
:100b40008a007800c2010700e10f40000100320076
:100b50008904e8000d0078008006e9000000e0004c
:100b6000e8ff3a000800e000ad0132001100370054
:100b70003a0090000068a3000700320009017800e5
:100b8000010220000a00780002ff07000000e000d8
:100b900006003a00060037008a00780000022000b4
:100ba000ab010700e10f4000010032008904e800ba
:100bb0008b05e9000b00e000edff3a0098013700db
:100bc0004e017800cf91de00c81ade004818dd0023
:100bd0004812de0004027000e4df9f000848a30012
:100be000080032000404e00006003200e14f420039
:100bf00004003200f4df9f0082e79f002d002000f8
:100c000002003700f2df9f001d002000e2fd2f00f0
:100c10000f0141000206e80099ff3700e0df9f0066
:100c2000ecfd2f000f0646001d00200094ff37004a
:100c3000e0df9f00080cb30008017800020cb2004e
:100c4000700064000200e0000d003a000000e000c7
:100c5000020032004e06be00020037004e06780049
:100c6000cfe6de00e00f5600e08f5e000a003d0098
:100c70003800b30060061600e0861e00060037004c
:100c80000000e000020032004e06be000200370005
:100c90004e0678008006eb000b00e00005003a00ed
:100ca0008c8576000bf0a7008b05ea008b05e90028
:100cb000cf5dde0088017800030cb200e3b79f002f
:100cc00000042000808f51002300320003003c000c
:100cd0000300e000080032002d003700000820006b
:100ce0006fb29700800f52000d003200000c200000
:100cf000800f520026003a000283200010c0b3008b
:100d000064014100b20f5600a28f5e001f0039003f
:100d10000040e800ea4f5000f9ff3a001b0037009e
:100d200010c0b3000201200003002000820f560013
:100d3000838f5e0015003900441add00cc11de00ff
:100d4000830172004411dd000040e800e84f5000cc
:100d5000f6ff3a000d00370010c0b30082002000fb
:100d600003002000820f5600838f5e0007003900c9
:100d7000431add00cd11de00830172004311dd0056
:100d80000040e800eb4f5000f6ff3a00e0df9f0024
:100d90006fd997000200fb008b0f500002003d004e
:100da000ebdf9f0003003700808f550001003d00fe
:100db000800578000100e000030032006300640059
:100dc000010032008100e90008e8a30005003200bc
:100dd0008b8f5000020034008b80500001003700e0
:100de0008000eb00efd997000300fb000002eb004e
:100df000d4b79f00808f5000020034000080500064
:100e0000d0b79f000828a3004000320061016400b1
:100e10000818a3000f0032003a0090000068a300f9
:100e200006003200b10220000200e00001003200a2
:100e30008180e800090178000d003700b002200031
:100e40000200e000010032000080e8008a00780023
:100e50000e0037000200e000100032003a0090005f
:100e60000068a30007003200090178000102200099
:100e70000a00780047fe07000000e00006003a0084
:100e8000060037008a00780000022000f00007000a
:100e9000e10f4000010032008904e8005fb09700d4
:100ea0000000e0005a003200bcb79f00cdb79f00a1
:100eb000800678003a0090000068a3000700320026
:100ec00009017800010320000a00780031fe0700c4
:100ed0000000e00006003a00060037008a007800b3
:100ee00000032000da000700e10f4000010032009b
:100ef0008904e8008d06e900eeff3a00ddb79f00a7
:100f00003fb69700cfb6970041003700dfb197009a
:100f10000300e0001a0032000838a30018003a006d
:100f2000bcb79f00cdb79f00830678003a009000c1
:100f30000068a300070032000901780001022000c8
:100f40000a00780013fe07000000e00006003a00e7
:100f5000060037008a00780000022000bc0007006d
:100f6000e10f4000010032008904e8008d06e9002d
:100f7000eeff3a00ddb79f003fb69700cfb697006f
:100f8000610164000818a3000f0032003a009000cd
:100f90000068a30006003200b10220000200e00059
:100fa000010032008180e800090178000d0037005f
:100fb000b00220000200e000010032000080e800e2
:100fc0008a0078000e0037000200e00010003200b6
:100fd0003a0090000068a300070032000901780081
:100fe000010220000a007800eafd07000000e0008e
:100ff00006003a00060037008a0078000002200050
:1010000093000700e10f4000010032008904e8006e
:101010000b03e9006330b90000017800b2b79f000c
:101020004233dd0000832000000343008e0178007e
:1010300093b79f0008077800060478005c0037002b
:101040008b05e900000420006fb29700800f52006a
:101050003800320003003c000400e00008003200c9
:101060003e00370000082000efb09700808f50004e
:1010700020003200000c2000808f500037003a0022
:101080000e48a300100032001802be000401be008a
:101090000c00be00f4b79f0085bf9f00f100070061
:1010a000e0df9f000000fb00cf80de007fb29700f2
:1010b0008fba97000401be00fa0007000006560030
:1010c00081865e00070037001801780011000900d2
:1010d0000286d800a2002000110009000280d8007a
:1010e000e1df9f006fd997000243b000e2df9f006d
:1010f0001a003700708120000e58a3000100320052
:101100006080200001832000810054000c01be009b
:101110008100e900030033008301d1000281d30084
:10112000fbff3700ef006100e0c07800e1df9f00c7
:101130000a0037000c00be00bfb197008301e90030
:10114000030033008100d1000080d300fbff370093
:10115000674060000043b000e0df9f00ba009000ed
:101160006fda97000400fb000168a300070032005b
:1011700009017800800078000a00780085fd0700ea
:101180000000e00005003a00050037008a00780002
:101190002f000700e10f4000010032008904e80041
:1011a0003fb0970063005000b0b79f006404540044
:1011b0000b00e000a2ff3a000e0478001fb7970072
:1011c0000838a30016003200dfb097000100e000ed
:1011d00013003400010478003a0090000068a30076
:1011e0000700320009017800010220000a0078009f
:1011f00068fd07000000e00006003a000600370026
:101200008a0078000002200011000700e10f400072
:10121000010032008904e8000804e900eeff3a000a
:101220002fb1970012407800e0df9f000004e0003b
:101230006bfd3a00090078004f0778004f06be00aa
:101240004f05be004f04be006f01b1000000060054
:10125000889fbe0001047800b80090008084eb00f5
:101260000118a3003a003200180190000198a30071
:1012700002003a000200e00035003a000190a000b0
:101280003104980080047800f90fb2000200e000f9
:1012900002003a0028009000000c7800ea8f540009
:1012a00005003a000178a30003003a0088007800a6
:1012b000d0002000e6ff070018009000d800900042
:1012c000810f50000b0032000000e800100498006d
:1012d0001800780009487800000ce80011c0b3003d
:1012e000e089200001487800ea8f540018003a0095
:1012f00005003700880078000940780017000700d3
:101300008004780012003700380090000088a300a5
:101310000f00320018019000a800900048009000d3
:10132000c4fc070098009000810f500004003200b8
:10133000380090000003b300300498008084eb0074
:101340000000eb001004980028009000000c7800ca
:10135000090078004f04be00000006000200fa00f9
:10136000889fbe00a0ff9f00010478003800900015
:101370000068a30033003a00e200600005003a0074
:101380000003b30030049800110498000080eb00c3
:101390002e003700d80490000900e00006003a0053
:1013a00012002000e680570048009000a1fc0700d2
:1013b0001904980023003700a80090000100e00005
:1013c00008003a00118a200021049800010c7800de
:1013d0002100200051049800110498000030a00062
:1013e0003004980018019000a80090004800900078
:1013f00090fc0700280090008080eb00110498000a
:10140000aff8970001487800000ce8002ff897002b
:10141000ea4f50000b003a00380090000088a3000b
:101420000800320018019000a800900048009000c9
:1014300080fc07000000eb0010049800a80090005a
:10144000010c7800aff897000100fb004f04be00cc
:101450000080fa00000006000000050000c0da006d
:10146000000006006022b800060220000000d00044
:101470008180d2000482d2008582d2000000a000c8
:101480000202520083825a0003003100020242002d
:1014900083824a000000a1000603e900f3ff3a003e
:1014a00000000600020ab900001bb9000200b800e3
:0c14b000810042008100430000000600a3
:020000040000fa
:020000040005f5
:0457fc007f3f0000eb
:020000040000fa
:020000040005f5
:0457f800fff70000b7
:020000040000fa
:020000040005f5
:0457f400ffff0000b3
:020000040000fa
:04003400c8020000fe
:020000040000fa
:1014bc003031000032330000343500003637000084
:1014cc00383900004142000043440000454600000a
:0814dc0025640000000000007f
:020000040000fa
:1014e4000000fa0070022000201088000742a900c2
:1014f40007e2a8000080fa00000006000000fa00dd
:101504000602a800000000003010800061006000a6
:101514000000e000fcff3a000080fa000000060032
:101524000000fa000642a80000000000301080000d
:10153400640060000000e000fcff3a000080fa0054
:10154400000006000000fa000622a80000000000c7
:1015540030108000620060000000e000fcff3a00f0
:101564000080fa00000006000200fa00000f780074
:101574009e007800111088000000000040108000d8
:10158400610060000000e000fcff3a000000000081
:101594004110800000002400008060000000e00092
:1015a400fbff3a00401080000080ea004f00de009c
:1015b400004078000080fa00000006000000fa00f5
:1015c4000662a8000000000030108000680060007f
:1015d4000000e000fcff3a000010800000407800aa
:1015e4000080fa00000006000000fa0006a2a9002c
:1015f4000682a80000000000301080007000600027
:101604000000e000fcff3a000080fa000000060041
:101614000000fa0006a2a8000682a800000000004c
:1016240030108000700060000000e000fcff3a0011
:101634000080fa00000006000000fa00c1168000d5
:10164400f004200001007000c01688000080fa0039
:10165400000006000000fa0000ff2f004017880079
:101664006117800000ff2f00008060006017880071
:101674000080fa00000006000000fa00c9e2a90098
:10168400da82a900d882a900d8a2a90000f02f000c
:1016940000178800daa2a900800320000f000700c9
:1016a400004c2d0011002000ee000700e000200097
:1016b4000a00070000c4290001002000e900070017
:1016c400100020000500070000c4290001002000cc
:1016d400e40007000080fa00000006000200fa009f
:1016e400000f7800cbe2a9009e0078001117880053
:1016f400da82a80000e2240001002000d9000700db
:10170400da82a90000e2240001002000d5000700cd
:101714000080fa00000006000000fa000021ef003b
:1017240000042000100888000481a80004a1a80077
:101734008460a9009460a80005e1a8000080fa0074
:10174400000006000000fa000621ef0010a12700a7
:10175400600888001081a90010a1a80011e1a80068
:081764000080fa0000000600fd
:020000040000fa
:10176c007e080000200000000200000050494300e9
:10177c0032342000426f61007264200076322e00f9
:10178c00305465006d7020003a202b002030300062
:10179c002e30300020430000000800000400000040
:1017ac00000000000408000002000000020000001d
:1017bc00c0000000060800005200000002000000fb
:1017cc00303132003334350036373800394142007d
:1017dc004344450046003000313233003435360086
:1017ec0037383900616263006465660000286e005a
:1017fc00756c6c002900000001000000000a00005c
:10180c000000640000000000e80300000010270046
:10181c000000a0008601000040420f0000809600ee
:10182c0098000000e1f5050000ca9a003b0000009a
:10183c005808000026000000020000009f0800006d
:10184c00009f08000900000000020000a108000031
:10185c0000a108000e0201000000000000000000c2
:10186c000000000006020200000000005808000002
:10187c009e0800000600000000000000a408000004
:10188c000200000002000000010000000000000047
:020000040000fa
:10189c000000fa0017ff07000009200030ff0700c6
:1018ac00100020002eff0700000220002cff070074
:1018bc0019ff07000080fa00000006000600fa007d
:1018cc000cff07000009200025ff07000000eb00bb
:1018dc0023ff070019ff07001009200020ff070055
:1018ec0034ff0700204798003dff070031ff070039
:1018fc00304798003aff070007ff07000000eb0095
:10190c00200798000000eb00000f78002e4090009c
:10191c000080fb00200798003e4090000080fb00f8
:10192c00000f7800000c20009e007800808f500083
:10193c0003003a00b0042000000f780010003700bc
:10194c00000820009e007800808f500003003a00b1
:10195c0020032000000f780009003700000420004d
:10196c009e007800808f500003003a009001200008
:10197c00000f7800020037000000eb00000f780029
:10198c00ae009000400620000088b90000007800ee
:10199c00200798002e0090001e00400020079800a1
:1019ac002e0090000080fa00000006000600fa00ed
:1019bc001fff07002eff070024ff070054ff07003e
:1019cc005eff0700c4fe0700b1ff0700bbff070066
:1019dc00000f78006000b8001007980021079800ed
:1019ec000e80e8009e1f7800e1a62800811f780079
:1019fc004ffb0700e48757002e4090008040780092
:101a0c0070892000014878003e40900080407800aa
:101a1c0080892000014878004e409000804078007a
:101a2c00a0892000014878005e409000804078003a
:101a3c00b08920000148780000242400f100200027
:101a4c0006000700ea02a80000242400f100200090
:0c1a5c0002000700ea02a900dcff3700ce
:020000040000fa
:101a6800f03fb1000180b10006003500ee03090027
:101a780000000000403fb1000180b100fbff3d00c5
:101a88001000b000203fb0000200350000800900bf
:081a9800000000000000060040
:00000001FF
